{
  "contractName": "Transaction",
  "abi": [
    {
      "constant": true,
      "inputs": [
        {
          "name": "",
          "type": "uint256"
        }
      ],
      "name": "users",
      "outputs": [
        {
          "name": "userId",
          "type": "uint256"
        },
        {
          "name": "userAddress",
          "type": "address"
        }
      ],
      "payable": false,
      "stateMutability": "view",
      "type": "function"
    },
    {
      "constant": true,
      "inputs": [
        {
          "name": "_replyId",
          "type": "uint256"
        }
      ],
      "name": "getTransactionData",
      "outputs": [
        {
          "name": "_stylistId",
          "type": "uint256"
        },
        {
          "name": "_customerId",
          "type": "uint256"
        }
      ],
      "payable": false,
      "stateMutability": "view",
      "type": "function"
    },
    {
      "constant": true,
      "inputs": [
        {
          "name": "",
          "type": "uint256"
        }
      ],
      "name": "replies",
      "outputs": [
        {
          "name": "replyId",
          "type": "uint256"
        },
        {
          "name": "stylistId",
          "type": "uint256"
        },
        {
          "name": "customerId",
          "type": "uint256"
        },
        {
          "name": "status",
          "type": "string"
        }
      ],
      "payable": false,
      "stateMutability": "view",
      "type": "function"
    },
    {
      "constant": false,
      "inputs": [
        {
          "name": "_stylistId",
          "type": "uint256"
        },
        {
          "name": "_customerId",
          "type": "uint256"
        }
      ],
      "name": "newReply",
      "outputs": [
        {
          "name": "_replyId",
          "type": "uint256"
        }
      ],
      "payable": false,
      "stateMutability": "nonpayable",
      "type": "function"
    },
    {
      "constant": true,
      "inputs": [],
      "name": "userTracker",
      "outputs": [
        {
          "name": "",
          "type": "uint256"
        }
      ],
      "payable": false,
      "stateMutability": "view",
      "type": "function"
    },
    {
      "constant": true,
      "inputs": [],
      "name": "replyTracker",
      "outputs": [
        {
          "name": "",
          "type": "uint256"
        }
      ],
      "payable": false,
      "stateMutability": "view",
      "type": "function"
    },
    {
      "constant": false,
      "inputs": [],
      "name": "auth",
      "outputs": [
        {
          "name": "_userId",
          "type": "uint256"
        },
        {
          "name": "_userAddress",
          "type": "address"
        }
      ],
      "payable": false,
      "stateMutability": "nonpayable",
      "type": "function"
    },
    {
      "constant": false,
      "inputs": [
        {
          "name": "_newAddress",
          "type": "address"
        }
      ],
      "name": "confirmPayment",
      "outputs": [],
      "payable": true,
      "stateMutability": "payable",
      "type": "function"
    }
  ],
  "bytecode": "0x608060405260008055600060015534801561001957600080fd5b50610b82806100296000396000f30060806040526004361061008e576000357c0100000000000000000000000000000000000000000000000000000000900463ffffffff168063365b98b2146100935780633b24b547146101075780634b76ef1c1461014f5780635c7c366d1461018557806367b282a11461024057806394b79b791461028b578063cb399adb146102b6578063de9375f2146102e1575b600080fd5b34801561009f57600080fd5b506100be6004803603810190808035906020019092919050505061033f565b604051808381526020018273ffffffffffffffffffffffffffffffffffffffff1673ffffffffffffffffffffffffffffffffffffffff1681526020019250505060405180910390f35b34801561011357600080fd5b5061013260048036038101908080359060200190929190505050610392565b604051808381526020018281526020019250505060405180910390f35b610183600480360381019080803573ffffffffffffffffffffffffffffffffffffffff169060200190929190505050610534565b005b34801561019157600080fd5b506101b0600480360381019080803590602001909291905050506106c9565b6040518085815260200184815260200183815260200180602001828103825283818151815260200191508051906020019080838360005b838110156102025780820151818401526020810190506101e7565b50505050905090810190601f16801561022f5780820380516001836020036101000a031916815260200191505b509550505050505060405180910390f35b34801561024c57600080fd5b5061027560048036038101908080359060200190929190803590602001909291905050506107a0565b6040518082815260200191505060405180910390f35b34801561029757600080fd5b506102a0610880565b6040518082815260200191505060405180910390f35b3480156102c257600080fd5b506102cb610886565b6040518082815260200191505060405180910390f35b3480156102ed57600080fd5b506102f661088c565b604051808381526020018273ffffffffffffffffffffffffffffffffffffffff1673ffffffffffffffffffffffffffffffffffffffff1681526020019250505060405180910390f35b60038181548110151561034e57fe5b90600052602060002090600202016000915090508060000154908060010160009054906101000a900473ffffffffffffffffffffffffffffffffffffffff16905082565b600080600080600080600080600091505b60048054905082101561042c57886004838154811015156103c057fe5b906000526020600020906004020160000154141561041f576004828154811015156103e757fe5b906000526020600020906004020160010154955060048281548110151561040a57fe5b90600052602060002090600402016002015494505b81806001019250506103a3565b600090505b600380549050811015610523578560038281548110151561044e57fe5b90600052602060002090600202016000015414156104aa5760038181548110151561047557fe5b906000526020600020906002020160010160009054906101000a900473ffffffffffffffffffffffffffffffffffffffff1693505b846003828154811015156104ba57fe5b9060005260206000209060020201600001541415610516576003818154811015156104e157fe5b906000526020600020906002020160010160009054906101000a900473ffffffffffffffffffffffffffffffffffffffff1692505b8080600101915050610431565b858597509750505050505050915091565b600560009054906101000a900473ffffffffffffffffffffffffffffffffffffffff1673ffffffffffffffffffffffffffffffffffffffff163373ffffffffffffffffffffffffffffffffffffffff1614156106c657600560009054906101000a900473ffffffffffffffffffffffffffffffffffffffff1673ffffffffffffffffffffffffffffffffffffffff168173ffffffffffffffffffffffffffffffffffffffff16141515610644578073ffffffffffffffffffffffffffffffffffffffff166108fc3073ffffffffffffffffffffffffffffffffffffffff16319081150290604051600060405180830381858888f1935050505015801561063e573d6000803e3d6000fd5b506106c5565b600560009054906101000a900473ffffffffffffffffffffffffffffffffffffffff1673ffffffffffffffffffffffffffffffffffffffff166108fc3073ffffffffffffffffffffffffffffffffffffffff16319081150290604051600060405180830381858888f193505050501580156106c3573d6000803e3d6000fd5b505b5b50565b6004818154811015156106d857fe5b9060005260206000209060040201600091509050806000015490806001015490806002015490806003018054600181600116156101000203166002900480601f0160208091040260200160405190810160405280929190818152602001828054600181600116156101000203166002900480156107965780601f1061076b57610100808354040283529160200191610796565b820191906000526020600020905b81548152906001019060200180831161077957829003601f168201915b5050505050905084565b600080600160005401600081905550600054905060046080604051908101604052808381526020018681526020018581526020016040805190810160405280600481526020017f6f70656e00000000000000000000000000000000000000000000000000000000815250815250908060018154018082558091505090600182039060005260206000209060040201600090919290919091506000820151816000015560208201518160010155604082015181600201556060820151816003019080519060200190610872929190610ab1565b505050508091505092915050565b60015481565b60005481565b6000806000806000339250600091505b600380549050821015610995578273ffffffffffffffffffffffffffffffffffffffff166003838154811015156108cf57fe5b906000526020600020906002020160010160009054906101000a900473ffffffffffffffffffffffffffffffffffffffff1673ffffffffffffffffffffffffffffffffffffffff1614156109885760038281548110151561092c57fe5b90600052602060002090600202016000015460038381548110151561094d57fe5b906000526020600020906002020160010160009054906101000a900473ffffffffffffffffffffffffffffffffffffffff1694509450610aaa565b818060010192505061089c565b60018054016001819055506001549050600360408051908101604052808381526020018573ffffffffffffffffffffffffffffffffffffffff16815250908060018154018082558091505090600182039060005260206000209060020201600090919290919091506000820151816000015560208201518160010160006101000a81548173ffffffffffffffffffffffffffffffffffffffff021916908373ffffffffffffffffffffffffffffffffffffffff160217905550505050826002600083815260200190815260200160002060006101000a81548173ffffffffffffffffffffffffffffffffffffffff021916908373ffffffffffffffffffffffffffffffffffffffff1602179055508083945094505b5050509091565b828054600181600116156101000203166002900490600052602060002090601f016020900481019282601f10610af257805160ff1916838001178555610b20565b82800160010185558215610b20579182015b82811115610b1f578251825591602001919060010190610b04565b5b509050610b2d9190610b31565b5090565b610b5391905b80821115610b4f576000816000905550600101610b37565b5090565b905600a165627a7a723058207c8ec64cf10b9d8c9a803461284a9c3270c795a13462462c002e39b245c897380029",
  "source": "pragma solidity ^0.4.23;\n\nimport \"./Main.sol\"; \n\ncontract Transaction is Main {\n    address stylistAddress;\n    address customerAddress;\n    uint amount;\n\n    // function payTip(uint _replyId) public payable {\n    //     amount = msg.value;\n    //     // (stylistAddress, customerAddress) = getTransactionData(_replyId);\n    // }\n\n    function confirmPayment(address _newAddress) public payable {\n        if(msg.sender == stylistAddress) {\n            if(_newAddress != stylistAddress) {\n                _newAddress.transfer(address(this).balance);\n            } else {\n                stylistAddress.transfer(address(this).balance);\n            }\n        }\n    }\n}",
  "sourcePath": "/home/angelajean/Documents/personal_projects/dress-me/server/truffle/contracts/Transaction.sol",
  "compiler": {
    "name": "solc",
    "version": "0.4.24+commit.e67f0147.Emscripten.clang"
  },
  "schemaVersion": "2.0.1",
  "updatedAt": "2018-12-16T19:00:05.173Z"
}