{
  "contractName": "Main",
  "abi": [
    {
      "constant": true,
      "inputs": [],
      "name": "requestTracker",
      "outputs": [
        {
          "name": "",
          "type": "uint256"
        }
      ],
      "payable": false,
      "stateMutability": "view",
      "type": "function"
    },
    {
      "constant": false,
      "inputs": [
        {
          "name": "recipient",
          "type": "address"
        }
      ],
      "name": "transferPrimary",
      "outputs": [],
      "payable": false,
      "stateMutability": "nonpayable",
      "type": "function"
    },
    {
      "constant": true,
      "inputs": [
        {
          "name": "",
          "type": "uint256"
        }
      ],
      "name": "users",
      "outputs": [
        {
          "name": "userId",
          "type": "uint256"
        },
        {
          "name": "userAddress",
          "type": "address"
        }
      ],
      "payable": false,
      "stateMutability": "view",
      "type": "function"
    },
    {
      "constant": false,
      "inputs": [
        {
          "name": "payee",
          "type": "address"
        }
      ],
      "name": "withdraw",
      "outputs": [],
      "payable": false,
      "stateMutability": "nonpayable",
      "type": "function"
    },
    {
      "constant": true,
      "inputs": [
        {
          "name": "",
          "type": "uint256"
        }
      ],
      "name": "replies",
      "outputs": [
        {
          "name": "replyId",
          "type": "uint256"
        },
        {
          "name": "requestId",
          "type": "uint256"
        },
        {
          "name": "stylistId",
          "type": "uint256"
        },
        {
          "name": "status",
          "type": "string"
        }
      ],
      "payable": false,
      "stateMutability": "view",
      "type": "function"
    },
    {
      "constant": true,
      "inputs": [
        {
          "name": "",
          "type": "uint256"
        }
      ],
      "name": "requests",
      "outputs": [
        {
          "name": "requestId",
          "type": "uint256"
        },
        {
          "name": "customerId",
          "type": "uint256"
        },
        {
          "name": "status",
          "type": "string"
        }
      ],
      "payable": false,
      "stateMutability": "view",
      "type": "function"
    },
    {
      "constant": true,
      "inputs": [],
      "name": "userTracker",
      "outputs": [
        {
          "name": "",
          "type": "uint256"
        }
      ],
      "payable": false,
      "stateMutability": "view",
      "type": "function"
    },
    {
      "constant": true,
      "inputs": [],
      "name": "primary",
      "outputs": [
        {
          "name": "",
          "type": "address"
        }
      ],
      "payable": false,
      "stateMutability": "view",
      "type": "function"
    },
    {
      "constant": true,
      "inputs": [],
      "name": "replyTracker",
      "outputs": [
        {
          "name": "",
          "type": "uint256"
        }
      ],
      "payable": false,
      "stateMutability": "view",
      "type": "function"
    },
    {
      "constant": true,
      "inputs": [
        {
          "name": "payee",
          "type": "address"
        }
      ],
      "name": "depositsOf",
      "outputs": [
        {
          "name": "",
          "type": "uint256"
        }
      ],
      "payable": false,
      "stateMutability": "view",
      "type": "function"
    },
    {
      "constant": false,
      "inputs": [
        {
          "name": "payee",
          "type": "address"
        }
      ],
      "name": "deposit",
      "outputs": [],
      "payable": true,
      "stateMutability": "payable",
      "type": "function"
    },
    {
      "anonymous": false,
      "inputs": [
        {
          "indexed": false,
          "name": "userId",
          "type": "uint256"
        },
        {
          "indexed": true,
          "name": "userAddress",
          "type": "address"
        }
      ],
      "name": "Authenticated",
      "type": "event"
    },
    {
      "anonymous": false,
      "inputs": [
        {
          "indexed": true,
          "name": "payee",
          "type": "address"
        },
        {
          "indexed": false,
          "name": "weiAmount",
          "type": "uint256"
        }
      ],
      "name": "Deposited",
      "type": "event"
    },
    {
      "anonymous": false,
      "inputs": [
        {
          "indexed": true,
          "name": "payee",
          "type": "address"
        },
        {
          "indexed": false,
          "name": "weiAmount",
          "type": "uint256"
        }
      ],
      "name": "Withdrawn",
      "type": "event"
    },
    {
      "anonymous": false,
      "inputs": [
        {
          "indexed": false,
          "name": "recipient",
          "type": "address"
        }
      ],
      "name": "PrimaryTransferred",
      "type": "event"
    },
    {
      "constant": false,
      "inputs": [],
      "name": "auth",
      "outputs": [
        {
          "name": "_userId",
          "type": "uint256"
        },
        {
          "name": "_userAddress",
          "type": "address"
        }
      ],
      "payable": false,
      "stateMutability": "nonpayable",
      "type": "function"
    },
    {
      "constant": false,
      "inputs": [
        {
          "name": "_customerId",
          "type": "uint256"
        }
      ],
      "name": "newRequest",
      "outputs": [
        {
          "name": "_requestId",
          "type": "uint256"
        }
      ],
      "payable": false,
      "stateMutability": "nonpayable",
      "type": "function"
    },
    {
      "constant": false,
      "inputs": [
        {
          "name": "_stylistId",
          "type": "uint256"
        },
        {
          "name": "_requestId",
          "type": "uint256"
        }
      ],
      "name": "newReply",
      "outputs": [
        {
          "name": "_replyId",
          "type": "uint256"
        }
      ],
      "payable": false,
      "stateMutability": "nonpayable",
      "type": "function"
    },
    {
      "constant": false,
      "inputs": [
        {
          "name": "_requestId",
          "type": "uint256"
        },
        {
          "name": "_acceptedReplyId",
          "type": "uint256"
        }
      ],
      "name": "closeRequest",
      "outputs": [],
      "payable": false,
      "stateMutability": "nonpayable",
      "type": "function"
    },
    {
      "constant": false,
      "inputs": [
        {
          "name": "_stylistId",
          "type": "uint256"
        }
      ],
      "name": "payTip",
      "outputs": [],
      "payable": false,
      "stateMutability": "nonpayable",
      "type": "function"
    },
    {
      "constant": true,
      "inputs": [
        {
          "name": "_stylistId",
          "type": "uint256"
        }
      ],
      "name": "getBalance",
      "outputs": [
        {
          "name": "_totalDeposits",
          "type": "uint256"
        }
      ],
      "payable": false,
      "stateMutability": "view",
      "type": "function"
    },
    {
      "constant": false,
      "inputs": [
        {
          "name": "_stylistId",
          "type": "uint256"
        }
      ],
      "name": "withdrawTips",
      "outputs": [],
      "payable": false,
      "stateMutability": "nonpayable",
      "type": "function"
    }
  ],
  "bytecode": "0x6080604052600160025560016003556001600455336000806101000a81548173ffffffffffffffffffffffffffffffffffffffff021916908373ffffffffffffffffffffffffffffffffffffffff1602179055507f4101e71e974f68df5e9730cc223280b41654676bbb052cdcc735c3337e64d2d96000809054906101000a900473ffffffffffffffffffffffffffffffffffffffff16604051808273ffffffffffffffffffffffffffffffffffffffff1673ffffffffffffffffffffffffffffffffffffffff16815260200191505060405180910390a1611751806100e66000396000f3006080604052600436106100fa576000357c0100000000000000000000000000000000000000000000000000000000900463ffffffff16806299308a146100ff578062b7520e1461012c5780630d61b95f146101575780631e010439146101845780632348238c146101c55780632c61714b14610208578063365b98b21461023f57806351cff8d9146102b35780635c7c366d146102f657806367b282a1146103b157806381d12c58146103fc57806394b79b79146104b0578063a07daa65146104db578063c6dbdf611461051c578063cb399adb14610573578063de9375f21461059e578063e3a9db1a146105fc578063f340fa0114610653575b600080fd5b34801561010b57600080fd5b5061012a60048036038101908080359060200190929190505050610689565b005b34801561013857600080fd5b50610141610725565b6040518082815260200191505060405180910390f35b34801561016357600080fd5b506101826004803603810190808035906020019092919050505061072b565b005b34801561019057600080fd5b506101af600480360381019080803590602001909291905050506107c7565b6040518082815260200191505060405180910390f35b3480156101d157600080fd5b50610206600480360381019080803573ffffffffffffffffffffffffffffffffffffffff16906020019092919050505061086e565b005b34801561021457600080fd5b5061023d60048036038101908080359060200190929190803590602001909291905050506109cc565b005b34801561024b57600080fd5b5061026a60048036038101908080359060200190929190505050610bd1565b604051808381526020018273ffffffffffffffffffffffffffffffffffffffff1673ffffffffffffffffffffffffffffffffffffffff1681526020019250505060405180910390f35b3480156102bf57600080fd5b506102f4600480360381019080803573ffffffffffffffffffffffffffffffffffffffff169060200190929190505050610c24565b005b34801561030257600080fd5b5061032160048036038101908080359060200190929190505050610da1565b6040518085815260200184815260200183815260200180602001828103825283818151815260200191508051906020019080838360005b83811015610373578082015181840152602081019050610358565b50505050905090810190601f1680156103a05780820380516001836020036101000a031916815260200191505b509550505050505060405180910390f35b3480156103bd57600080fd5b506103e66004803603810190808035906020019092919080359060200190929190505050610e78565b6040518082815260200191505060405180910390f35b34801561040857600080fd5b5061042760048036038101908080359060200190929190505050610f58565b6040518084815260200183815260200180602001828103825283818151815260200191508051906020019080838360005b83811015610473578082015181840152602081019050610458565b50505050905090810190601f1680156104a05780820380516001836020036101000a031916815260200191505b5094505050505060405180910390f35b3480156104bc57600080fd5b506104c5611029565b6040518082815260200191505060405180910390f35b3480156104e757600080fd5b506105066004803603810190808035906020019092919050505061102f565b6040518082815260200191505060405180910390f35b34801561052857600080fd5b506105316110fe565b604051808273ffffffffffffffffffffffffffffffffffffffff1673ffffffffffffffffffffffffffffffffffffffff16815260200191505060405180910390f35b34801561057f57600080fd5b50610588611127565b6040518082815260200191505060405180910390f35b3480156105aa57600080fd5b506105b361112d565b604051808381526020018273ffffffffffffffffffffffffffffffffffffffff1673ffffffffffffffffffffffffffffffffffffffff1681526020019250505060405180910390f35b34801561060857600080fd5b5061063d600480360381019080803573ffffffffffffffffffffffffffffffffffffffff16906020019092919050505061144f565b6040518082815260200191505060405180910390f35b610687600480360381019080803573ffffffffffffffffffffffffffffffffffffffff169060200190929190505050611498565b005b600080600090505b60068054905081101561071757826006828154811015156106ae57fe5b906000526020600020906002020160000154141561070a576006818154811015156106d557fe5b906000526020600020906002020160010160009054906101000a900473ffffffffffffffffffffffffffffffffffffffff1691505b8080600101915050610691565b61072082611498565b505050565b60035481565b600080600090505b6006805490508110156107b9578260068281548110151561075057fe5b90600052602060002090600202016000015414156107ac5760068181548110151561077757fe5b906000526020600020906002020160010160009054906101000a900473ffffffffffffffffffffffffffffffffffffffff1691505b8080600101915050610733565b6107c282610c24565b505050565b600080600080600091505b60068054905082101561085857846006838154811015156107ef57fe5b906000526020600020906002020160000154141561084b5760068281548110151561081657fe5b906000526020600020906002020160010160009054906101000a900473ffffffffffffffffffffffffffffffffffffffff1692505b81806001019250506107d2565b6108618361144f565b9050809350505050919050565b6000809054906101000a900473ffffffffffffffffffffffffffffffffffffffff1673ffffffffffffffffffffffffffffffffffffffff163373ffffffffffffffffffffffffffffffffffffffff161415156108c957600080fd5b600073ffffffffffffffffffffffffffffffffffffffff168173ffffffffffffffffffffffffffffffffffffffff161415151561090557600080fd5b806000806101000a81548173ffffffffffffffffffffffffffffffffffffffff021916908373ffffffffffffffffffffffffffffffffffffffff1602179055507f4101e71e974f68df5e9730cc223280b41654676bbb052cdcc735c3337e64d2d96000809054906101000a900473ffffffffffffffffffffffffffffffffffffffff16604051808273ffffffffffffffffffffffffffffffffffffffff1673ffffffffffffffffffffffffffffffffffffffff16815260200191505060405180910390a150565b600080600091505b600780549050821015610a8157836007838154811015156109f157fe5b9060005260206000209060030201600001541415610a74576040805190810160405280600681526020017f636c6f7365640000000000000000000000000000000000000000000000000000815250600783815481101515610a4e57fe5b90600052602060002090600302016002019080519060200190610a72929190611600565b505b81806001019250506109d4565b600090505b600880549050811015610bcb5783600882815481101515610aa357fe5b9060005260206000209060040201600101541415610bbe5782600882815481101515610acb57fe5b9060005260206000209060040201600001541415610b52576040805190810160405280600881526020017f6163636570746564000000000000000000000000000000000000000000000000815250600882815481101515610b2857fe5b90600052602060002090600402016003019080519060200190610b4c929190611600565b50610bbd565b6040805190810160405280600881526020017f72656a6563746564000000000000000000000000000000000000000000000000815250600882815481101515610b9757fe5b90600052602060002090600402016003019080519060200190610bbb929190611600565b505b5b8080600101915050610a86565b50505050565b600681815481101515610be057fe5b90600052602060002090600202016000915090508060000154908060010160009054906101000a900473ffffffffffffffffffffffffffffffffffffffff16905082565b60008060009054906101000a900473ffffffffffffffffffffffffffffffffffffffff1673ffffffffffffffffffffffffffffffffffffffff163373ffffffffffffffffffffffffffffffffffffffff16141515610c8157600080fd5b600160008373ffffffffffffffffffffffffffffffffffffffff1673ffffffffffffffffffffffffffffffffffffffff1681526020019081526020016000205490506000600160008473ffffffffffffffffffffffffffffffffffffffff1673ffffffffffffffffffffffffffffffffffffffff168152602001908152602001600020819055508173ffffffffffffffffffffffffffffffffffffffff166108fc829081150290604051600060405180830381858888f19350505050158015610d4e573d6000803e3d6000fd5b508173ffffffffffffffffffffffffffffffffffffffff167f7084f5476618d8e60b11ef0d7d3f06914655adb8793e28ff7f018d4c76d505d5826040518082815260200191505060405180910390a25050565b600881815481101515610db057fe5b9060005260206000209060040201600091509050806000015490806001015490806002015490806003018054600181600116156101000203166002900480601f016020809104026020016040519081016040528092919081815260200182805460018160011615610100020316600290048015610e6e5780601f10610e4357610100808354040283529160200191610e6e565b820191906000526020600020905b815481529060010190602001808311610e5157829003601f168201915b5050505050905084565b600080600454905060086080604051908101604052808381526020018581526020018681526020016040805190810160405280600481526020017f6f70656e00000000000000000000000000000000000000000000000000000000815250815250908060018154018082558091505090600182039060005260206000209060040201600090919290919091506000820151816000015560208201518160010155604082015181600201556060820151816003019080519060200190610f3e929190611680565b505050506001600454016004819055508091505092915050565b600781815481101515610f6757fe5b9060005260206000209060030201600091509050806000015490806001015490806002018054600181600116156101000203166002900480601f01602080910402602001604051908101604052809291908181526020018280546001816001161561010002031660029004801561101f5780601f10610ff45761010080835404028352916020019161101f565b820191906000526020600020905b81548152906001019060200180831161100257829003601f168201915b5050505050905083565b60025481565b600080600354905060076060604051908101604052808381526020018581526020016040805190810160405280600481526020017f6f70656e0000000000000000000000000000000000000000000000000000000081525081525090806001815401808255809150509060018203906000526020600020906003020160009091929091909150600082015181600001556020820151816001015560408201518160020190805190602001906110e5929190611680565b5050505060016003540160038190555080915050919050565b60008060009054906101000a900473ffffffffffffffffffffffffffffffffffffffff16905090565b60045481565b6000806000806000339250600091505b6006805490508210156112e4578273ffffffffffffffffffffffffffffffffffffffff1660068381548110151561117057fe5b906000526020600020906002020160010160009054906101000a900473ffffffffffffffffffffffffffffffffffffffff1673ffffffffffffffffffffffffffffffffffffffff1614156112d7576006828154811015156111cd57fe5b906000526020600020906002020160010160009054906101000a900473ffffffffffffffffffffffffffffffffffffffff1673ffffffffffffffffffffffffffffffffffffffff167fbf2501583d82ac53d991c1ad3186a4490945197d67e5e486f01a75f065db6aeb60068481548110151561124557fe5b9060005260206000209060020201600001546040518082815260200191505060405180910390a260068281548110151561127b57fe5b90600052602060002090600202016000015460068381548110151561129c57fe5b906000526020600020906002020160010160009054906101000a900473ffffffffffffffffffffffffffffffffffffffff1694509450611448565b818060010192505061113d565b6002549050600660408051908101604052808381526020018573ffffffffffffffffffffffffffffffffffffffff16815250908060018154018082558091505090600182039060005260206000209060020201600090919290919091506000820151816000015560208201518160010160006101000a81548173ffffffffffffffffffffffffffffffffffffffff021916908373ffffffffffffffffffffffffffffffffffffffff160217905550505050826005600083815260200190815260200160002060006101000a81548173ffffffffffffffffffffffffffffffffffffffff021916908373ffffffffffffffffffffffffffffffffffffffff1602179055506001600254016002819055508273ffffffffffffffffffffffffffffffffffffffff167fbf2501583d82ac53d991c1ad3186a4490945197d67e5e486f01a75f065db6aeb826040518082815260200191505060405180910390a28083945094505b5050509091565b6000600160008373ffffffffffffffffffffffffffffffffffffffff1673ffffffffffffffffffffffffffffffffffffffff168152602001908152602001600020549050919050565b60008060009054906101000a900473ffffffffffffffffffffffffffffffffffffffff1673ffffffffffffffffffffffffffffffffffffffff163373ffffffffffffffffffffffffffffffffffffffff161415156114f557600080fd5b34905061154a81600160008573ffffffffffffffffffffffffffffffffffffffff1673ffffffffffffffffffffffffffffffffffffffff168152602001908152602001600020546115df90919063ffffffff16565b600160008473ffffffffffffffffffffffffffffffffffffffff1673ffffffffffffffffffffffffffffffffffffffff168152602001908152602001600020819055508173ffffffffffffffffffffffffffffffffffffffff167f2da466a7b24304f47e87fa2e1e5a81b9831ce54fec19055ce277ca2f39ba42c4826040518082815260200191505060405180910390a25050565b60008082840190508381101515156115f657600080fd5b8091505092915050565b828054600181600116156101000203166002900490600052602060002090601f016020900481019282601f1061164157805160ff191683800117855561166f565b8280016001018555821561166f579182015b8281111561166e578251825591602001919060010190611653565b5b50905061167c9190611700565b5090565b828054600181600116156101000203166002900490600052602060002090601f016020900481019282601f106116c157805160ff19168380011785556116ef565b828001600101855582156116ef579182015b828111156116ee5782518255916020019190600101906116d3565b5b5090506116fc9190611700565b5090565b61172291905b8082111561171e576000816000905550600101611706565b5090565b905600a165627a7a723058206bd79e967b649648df78c3743c6727ccc9d913a39fd817fc88fd05df18238f770029",
  "source": "pragma solidity ^0.4.23;\n\nimport \"../../node_modules/openzeppelin-solidity/contracts/payment/escrow/Escrow.sol\";\n\ncontract Main is Escrow {\n    uint256 public userTracker = 1;\n    uint256 public requestTracker = 1;\n    uint256 public replyTracker = 1;\n\n    mapping (uint256 => address) userIdToAddress;\n\n    struct User  {uint256 userId; address userAddress; }\n    struct Request { uint256 requestId; uint256 customerId; string status; }\n    struct Reply { uint256 replyId; uint256 requestId;  uint256 stylistId; string status; }\n\n    User[] public users;\n    Request[] public requests;\n    Reply[] public replies;\n\n    event Authenticated(uint256 userId, address indexed userAddress);\n\n    function auth() public returns (uint256 _userId, address _userAddress) {\n        address userAddress = msg.sender;\n        for(uint i = 0; i < users.length; i++) {\n            if(users[i].userAddress == userAddress) {\n                emit Authenticated(users[i].userId, users[i].userAddress);\n                return (users[i].userId, users[i].userAddress);\n            }\n        }\n        uint256 userId = userTracker;\n        users.push(User(userId, userAddress));\n        userIdToAddress[userId] = userAddress;\n        userTracker = userTracker + 1;\n        emit Authenticated(userId, userAddress);\n        return (userId, userAddress);\n    }\n\n    function newRequest(uint256 _customerId) public returns(uint256 _requestId) {\n        uint256 requestId = requestTracker;\n        requests.push(Request(requestId, _customerId, \"open\"));\n        requestTracker = requestTracker + 1;\n        return requestId;\n    }\n\n    function newReply(uint256 _stylistId, uint256 _requestId) public returns(uint256 _replyId) {\n        uint256 replyId = replyTracker;\n        replies.push(Reply(replyId, _requestId, _stylistId, \"open\"));\n        replyTracker = replyTracker + 1;\n        return replyId;\n    }\n\n    function closeRequest(uint256 _requestId, uint256 _acceptedReplyId) public {\n        for(uint i = 0; i < requests.length; i++) {\n            if(requests[i].requestId == _requestId) {\n                requests[i].status = \"closed\";\n            }\n        }\n        for(uint j = 0; j < replies.length; j++) {\n            if(replies[j].requestId == _requestId) {\n                if(replies[j].replyId == _acceptedReplyId) {\n                    replies[j].status = \"accepted\";\n                } else {\n                    replies[j].status = \"rejected\";\n                }\n            }\n        }\n    }\n\n    function payTip(uint256 _stylistId) public {\n        address stylistAddress;\n        for(uint i = 0; i < users.length; i++) {\n            if(users[i].userId == _stylistId) {\n                stylistAddress = users[i].userAddress;\n            }\n        }\n        deposit(stylistAddress);\n    }\n\n    function getBalance(uint256 _stylistId) public view returns(uint256 _totalDeposits) {\n        address stylistAddress;\n        for(uint i = 0; i < users.length; i++) {\n            if(users[i].userId == _stylistId) {\n                stylistAddress = users[i].userAddress;\n            }\n        }\n        uint256 totalDeposits = depositsOf(stylistAddress);\n        return totalDeposits;\n    }\n\n    function withdrawTips(uint256 _stylistId) public {\n        address stylistAddress;\n        for(uint i = 0; i < users.length; i++) {\n            if(users[i].userId == _stylistId) {\n                stylistAddress = users[i].userAddress;\n            }\n        }\n        withdraw(stylistAddress);\n    }\n\n}\n",
  "sourcePath": "/home/angelajean/Documents/personal_projects/dress-me/truffle/contracts/Main.sol",
  "compiler": {
    "name": "solc",
    "version": "0.4.24+commit.e67f0147.Emscripten.clang"
  },
  "schemaVersion": "2.0.1",
  "updatedAt": "2019-01-09T16:41:28.003Z"
}