{
  "contractName": "Main",
  "abi": [
    {
      "constant": true,
      "inputs": [
        {
          "name": "",
          "type": "uint256"
        }
      ],
      "name": "users",
      "outputs": [
        {
          "name": "userId",
          "type": "uint256"
        },
        {
          "name": "userAddress",
          "type": "address"
        }
      ],
      "payable": false,
      "stateMutability": "view",
      "type": "function"
    },
    {
      "constant": true,
      "inputs": [
        {
          "name": "",
          "type": "uint256"
        }
      ],
      "name": "replies",
      "outputs": [
        {
          "name": "replyId",
          "type": "uint256"
        },
        {
          "name": "stylistId",
          "type": "uint256"
        },
        {
          "name": "customerId",
          "type": "uint256"
        },
        {
          "name": "status",
          "type": "string"
        }
      ],
      "payable": false,
      "stateMutability": "view",
      "type": "function"
    },
    {
      "constant": true,
      "inputs": [],
      "name": "userTracker",
      "outputs": [
        {
          "name": "",
          "type": "uint256"
        }
      ],
      "payable": false,
      "stateMutability": "view",
      "type": "function"
    },
    {
      "constant": true,
      "inputs": [],
      "name": "replyTracker",
      "outputs": [
        {
          "name": "",
          "type": "uint256"
        }
      ],
      "payable": false,
      "stateMutability": "view",
      "type": "function"
    },
    {
      "constant": false,
      "inputs": [],
      "name": "auth",
      "outputs": [
        {
          "name": "_userId",
          "type": "uint256"
        },
        {
          "name": "_userAddress",
          "type": "address"
        }
      ],
      "payable": false,
      "stateMutability": "nonpayable",
      "type": "function"
    },
    {
      "constant": false,
      "inputs": [
        {
          "name": "_stylistId",
          "type": "uint256"
        },
        {
          "name": "_customerId",
          "type": "uint256"
        }
      ],
      "name": "newReply",
      "outputs": [
        {
          "name": "_replyId",
          "type": "uint256"
        }
      ],
      "payable": false,
      "stateMutability": "nonpayable",
      "type": "function"
    },
    {
      "constant": true,
      "inputs": [
        {
          "name": "_replyId",
          "type": "uint256"
        }
      ],
      "name": "getTransactionData",
      "outputs": [
        {
          "name": "_stylistId",
          "type": "uint256"
        },
        {
          "name": "_customerId",
          "type": "uint256"
        }
      ],
      "payable": false,
      "stateMutability": "view",
      "type": "function"
    }
  ],
  "bytecode": "0x608060405260008055600060015534801561001957600080fd5b506109ac806100296000396000f300608060405260043610610083576000357c0100000000000000000000000000000000000000000000000000000000900463ffffffff168063365b98b2146100885780633b24b547146100fc5780635c7c366d1461014457806367b282a1146101ff57806394b79b791461024a578063cb399adb14610275578063de9375f2146102a0575b600080fd5b34801561009457600080fd5b506100b3600480360381019080803590602001909291905050506102fe565b604051808381526020018273ffffffffffffffffffffffffffffffffffffffff1673ffffffffffffffffffffffffffffffffffffffff1681526020019250505060405180910390f35b34801561010857600080fd5b5061012760048036038101908080359060200190929190505050610351565b604051808381526020018281526020019250505060405180910390f35b34801561015057600080fd5b5061016f600480360381019080803590602001909291905050506104f3565b6040518085815260200184815260200183815260200180602001828103825283818151815260200191508051906020019080838360005b838110156101c15780820151818401526020810190506101a6565b50505050905090810190601f1680156101ee5780820380516001836020036101000a031916815260200191505b509550505050505060405180910390f35b34801561020b57600080fd5b5061023460048036038101908080359060200190929190803590602001909291905050506105ca565b6040518082815260200191505060405180910390f35b34801561025657600080fd5b5061025f6106aa565b6040518082815260200191505060405180910390f35b34801561028157600080fd5b5061028a6106b0565b6040518082815260200191505060405180910390f35b3480156102ac57600080fd5b506102b56106b6565b604051808381526020018273ffffffffffffffffffffffffffffffffffffffff1673ffffffffffffffffffffffffffffffffffffffff1681526020019250505060405180910390f35b60038181548110151561030d57fe5b90600052602060002090600202016000915090508060000154908060010160009054906101000a900473ffffffffffffffffffffffffffffffffffffffff16905082565b600080600080600080600080600091505b6004805490508210156103eb578860048381548110151561037f57fe5b90600052602060002090600402016000015414156103de576004828154811015156103a657fe5b90600052602060002090600402016001015495506004828154811015156103c957fe5b90600052602060002090600402016002015494505b8180600101925050610362565b600090505b6003805490508110156104e2578560038281548110151561040d57fe5b90600052602060002090600202016000015414156104695760038181548110151561043457fe5b906000526020600020906002020160010160009054906101000a900473ffffffffffffffffffffffffffffffffffffffff1693505b8460038281548110151561047957fe5b90600052602060002090600202016000015414156104d5576003818154811015156104a057fe5b906000526020600020906002020160010160009054906101000a900473ffffffffffffffffffffffffffffffffffffffff1692505b80806001019150506103f0565b858597509750505050505050915091565b60048181548110151561050257fe5b9060005260206000209060040201600091509050806000015490806001015490806002015490806003018054600181600116156101000203166002900480601f0160208091040260200160405190810160405280929190818152602001828054600181600116156101000203166002900480156105c05780601f10610595576101008083540402835291602001916105c0565b820191906000526020600020905b8154815290600101906020018083116105a357829003601f168201915b5050505050905084565b600080600160005401600081905550600054905060046080604051908101604052808381526020018681526020018581526020016040805190810160405280600481526020017f6f70656e0000000000000000000000000000000000000000000000000000000081525081525090806001815401808255809150509060018203906000526020600020906004020160009091929091909150600082015181600001556020820151816001015560408201518160020155606082015181600301908051906020019061069c9291906108db565b505050508091505092915050565b60015481565b60005481565b6000806000806000339250600091505b6003805490508210156107bf578273ffffffffffffffffffffffffffffffffffffffff166003838154811015156106f957fe5b906000526020600020906002020160010160009054906101000a900473ffffffffffffffffffffffffffffffffffffffff1673ffffffffffffffffffffffffffffffffffffffff1614156107b25760038281548110151561075657fe5b90600052602060002090600202016000015460038381548110151561077757fe5b906000526020600020906002020160010160009054906101000a900473ffffffffffffffffffffffffffffffffffffffff16945094506108d4565b81806001019250506106c6565b60018054016001819055506001549050600360408051908101604052808381526020018573ffffffffffffffffffffffffffffffffffffffff16815250908060018154018082558091505090600182039060005260206000209060020201600090919290919091506000820151816000015560208201518160010160006101000a81548173ffffffffffffffffffffffffffffffffffffffff021916908373ffffffffffffffffffffffffffffffffffffffff160217905550505050826002600083815260200190815260200160002060006101000a81548173ffffffffffffffffffffffffffffffffffffffff021916908373ffffffffffffffffffffffffffffffffffffffff1602179055508083945094505b5050509091565b828054600181600116156101000203166002900490600052602060002090601f016020900481019282601f1061091c57805160ff191683800117855561094a565b8280016001018555821561094a579182015b8281111561094957825182559160200191906001019061092e565b5b509050610957919061095b565b5090565b61097d91905b80821115610979576000816000905550600101610961565b5090565b905600a165627a7a723058207fad53bf19046f36fdadba315cf40f7a4152612678323cbe1a431bc90f62363a0029",
  "source": "pragma solidity ^0.4.23;\n\ncontract Main {\n    uint public replyTracker = 0;\n    uint public userTracker = 0;\n    mapping (uint => address) userIdToAddress;\n    struct User  {uint userId; address userAddress; }\n    struct Reply { uint replyId; uint stylistId; uint customerId; string status; }\n\n    User[] public users;\n    Reply[] public replies;\n\n    function auth() public returns (uint _userId, address _userAddress) {\n        address userAddress = msg.sender;\n        for(uint i = 0; i < users.length; i++) {\n            if(users[i].userAddress == userAddress) {\n                return (users[i].userId, users[i].userAddress);\n            }\n        }\n        userTracker = userTracker + 1;\n        uint userId = userTracker;\n        users.push(User(userId, userAddress));\n        userIdToAddress[userId] = userAddress;\n        return (userId, userAddress);\n    }\n\n    function newReply(uint _stylistId, uint _customerId) public returns(uint _replyId) {\n        replyTracker = replyTracker + 1;\n        uint replyId = replyTracker;\n        replies.push(Reply(replyId, _stylistId, _customerId, \"open\"));\n        return replyId;\n    }\n\n    function getTransactionData(uint _replyId) public view returns (uint _stylistId, uint _customerId) {\n    // function getTransactionData(uint _replyId) public view returns (address _stylist, address _customer) {\n        uint stylistId;\n        uint customerId;\n        address stylistAddress;\n        address customerAddress;\n        for (uint i = 0; i < replies.length; i++) {\n            if(replies[i].replyId == _replyId) {\n                stylistId = replies[i].stylistId;\n                customerId = replies[i].customerId;\n            }\n        }\n\n        for(uint j = 0; j < users.length; j++) {\n            if(users[j].userId == stylistId) {\n                stylistAddress = users[j].userAddress;\n            }\n            if(users[j].userId == customerId) {\n                customerAddress = users[j].userAddress;\n            }\n        }\n        return (stylistId, customerId);\n        // return (stylistAddress, customerAddress);\n    }\n\n}\n",
  "sourcePath": "/home/angelajean/Documents/personal_projects/dress-me/server/truffle/contracts/Main.sol",
  "compiler": {
    "name": "solc",
    "version": "0.4.24+commit.e67f0147.Emscripten.clang"
  },
  "schemaVersion": "2.0.1",
  "updatedAt": "2018-12-16T19:00:12.098Z"
}